{
  "contractName": "TokenFarm",
  "abi": [
    {
      "inputs": [
        {
          "internalType": "contract DappToken",
          "name": "_dappToken",
          "type": "address"
        },
        {
          "internalType": "contract DaiToken",
          "name": "_daiToken",
          "type": "address"
        }
      ],
      "stateMutability": "nonpayable",
      "type": "constructor"
    },
    {
      "inputs": [],
      "name": "daiToken",
      "outputs": [
        {
          "internalType": "contract DaiToken",
          "name": "",
          "type": "address"
        }
      ],
      "stateMutability": "view",
      "type": "function"
    },
    {
      "inputs": [],
      "name": "dappToken",
      "outputs": [
        {
          "internalType": "contract DappToken",
          "name": "",
          "type": "address"
        }
      ],
      "stateMutability": "view",
      "type": "function"
    },
    {
      "inputs": [
        {
          "internalType": "address",
          "name": "",
          "type": "address"
        }
      ],
      "name": "hasStaked",
      "outputs": [
        {
          "internalType": "bool",
          "name": "",
          "type": "bool"
        }
      ],
      "stateMutability": "view",
      "type": "function"
    },
    {
      "inputs": [
        {
          "internalType": "address",
          "name": "",
          "type": "address"
        }
      ],
      "name": "isStaking",
      "outputs": [
        {
          "internalType": "bool",
          "name": "",
          "type": "bool"
        }
      ],
      "stateMutability": "view",
      "type": "function"
    },
    {
      "inputs": [],
      "name": "name",
      "outputs": [
        {
          "internalType": "string",
          "name": "",
          "type": "string"
        }
      ],
      "stateMutability": "view",
      "type": "function"
    },
    {
      "inputs": [],
      "name": "owner",
      "outputs": [
        {
          "internalType": "address",
          "name": "",
          "type": "address"
        }
      ],
      "stateMutability": "view",
      "type": "function"
    },
    {
      "inputs": [
        {
          "internalType": "uint256",
          "name": "",
          "type": "uint256"
        }
      ],
      "name": "stakers",
      "outputs": [
        {
          "internalType": "address",
          "name": "",
          "type": "address"
        }
      ],
      "stateMutability": "view",
      "type": "function"
    },
    {
      "inputs": [
        {
          "internalType": "address",
          "name": "",
          "type": "address"
        }
      ],
      "name": "stakingBalance",
      "outputs": [
        {
          "internalType": "uint256",
          "name": "",
          "type": "uint256"
        }
      ],
      "stateMutability": "view",
      "type": "function"
    },
    {
      "inputs": [
        {
          "internalType": "uint256",
          "name": "_amount",
          "type": "uint256"
        }
      ],
      "name": "stakeTokens",
      "outputs": [],
      "stateMutability": "nonpayable",
      "type": "function"
    },
    {
      "inputs": [],
      "name": "unstakeTokens",
      "outputs": [],
      "stateMutability": "nonpayable",
      "type": "function"
    },
    {
      "inputs": [],
      "name": "issueTokens",
      "outputs": [],
      "stateMutability": "nonpayable",
      "type": "function"
    }
  ],
  "bytecode": "0x60806040526040518060400160405280600f81526020017f4441707020546f6b656e204661726d0000000000000000000000000000000000815250600090805190602001906200005192919062000150565b503480156200005f57600080fd5b50604051620014983803806200149883398181016040528101906200008591906200022e565b81600260006101000a81548173ffffffffffffffffffffffffffffffffffffffff021916908373ffffffffffffffffffffffffffffffffffffffff16021790555080600360006101000a81548173ffffffffffffffffffffffffffffffffffffffff021916908373ffffffffffffffffffffffffffffffffffffffff16021790555033600160006101000a81548173ffffffffffffffffffffffffffffffffffffffff021916908373ffffffffffffffffffffffffffffffffffffffff160217905550505062000364565b8280546200015e90620002cb565b90600052602060002090601f016020900481019282620001825760008555620001ce565b82601f106200019d57805160ff1916838001178555620001ce565b82800160010185558215620001ce579182015b82811115620001cd578251825591602001919060010190620001b0565b5b509050620001dd9190620001e1565b5090565b5b80821115620001fc576000816000905550600101620001e2565b5090565b600081519050620002118162000330565b92915050565b60008151905062000228816200034a565b92915050565b600080604083850312156200024257600080fd5b6000620002528582860162000217565b9250506020620002658582860162000200565b9150509250929050565b60006200027c82620002ab565b9050919050565b600062000290826200026f565b9050919050565b6000620002a4826200026f565b9050919050565b600073ffffffffffffffffffffffffffffffffffffffff82169050919050565b60006002820490506001821680620002e457607f821691505b60208210811415620002fb57620002fa62000301565b5b50919050565b7f4e487b7100000000000000000000000000000000000000000000000000000000600052602260045260246000fd5b6200033b8162000283565b81146200034757600080fd5b50565b620003558162000297565b81146200036157600080fd5b50565b61112480620003746000396000f3fe608060405234801561001057600080fd5b50600436106100c6576000357c0100000000000000000000000000000000000000000000000000000000900480637547c7a31161008e5780637547c7a3146101715780638da5cb5b1461018d578063a5ce413b146101ab578063be22f546146101b5578063c93c8f34146101d3578063fd5e6dd114610203576100c6565b806306fdde03146100cb57806345bc78ab146100e95780635eb186f81461011957806360ab5852146101375780636f49712b14610141575b600080fd5b6100d3610233565b6040516100e09190610d72565b60405180910390f35b61010360048036038101906100fe9190610b3e565b6102c1565b6040516101109190610df4565b60405180910390f35b6101216102d9565b60405161012e9190610d57565b60405180910390f35b61013f6102ff565b005b61015b60048036038101906101569190610b3e565b61053a565b6040516101689190610d21565b60405180910390f35b61018b60048036038101906101869190610b90565b61055a565b005b610195610861565b6040516101a29190610ca6565b60405180910390f35b6101b3610887565b005b6101bd610a7a565b6040516101ca9190610d3c565b60405180910390f35b6101ed60048036038101906101e89190610b3e565b610aa0565b6040516101fa9190610d21565b60405180910390f35b61021d60048036038101906102189190610b90565b610ac0565b60405161022a9190610ca6565b60405180910390f35b6000805461024090610f44565b80601f016020809104026020016040519081016040528092919081815260200182805461026c90610f44565b80156102b95780601f1061028e576101008083540402835291602001916102b9565b820191906000526020600020905b81548152906001019060200180831161029c57829003601f168201915b505050505081565b60056020528060005260406000206000915090505481565b600260009054906101000a900473ffffffffffffffffffffffffffffffffffffffff1681565b600160009054906101000a900473ffffffffffffffffffffffffffffffffffffffff1673ffffffffffffffffffffffffffffffffffffffff163373ffffffffffffffffffffffffffffffffffffffff161461038f576040517f08c379a000000000000000000000000000000000000000000000000000000000815260040161038690610d94565b60405180910390fd5b60005b600480549050811015610537576000600482815481106103db577f4e487b7100000000000000000000000000000000000000000000000000000000600052603260045260246000fd5b9060005260206000200160009054906101000a900473ffffffffffffffffffffffffffffffffffffffff1690506000600560008373ffffffffffffffffffffffffffffffffffffffff1673ffffffffffffffffffffffffffffffffffffffff168152602001908152602001600020549050600081111561052257600260009054906101000a900473ffffffffffffffffffffffffffffffffffffffff1673ffffffffffffffffffffffffffffffffffffffff1663a9059cbb83836040518363ffffffff167c01000000000000000000000000000000000000000000000000000000000281526004016104ce929190610cf8565b602060405180830381600087803b1580156104e857600080fd5b505af11580156104fc573d6000803e3d6000fd5b505050506040513d601f19601f820116820180604052508101906105209190610b67565b505b5050808061052f90610f76565b915050610392565b50565b60076020528060005260406000206000915054906101000a900460ff1681565b6000811161059d576040517f08c379a000000000000000000000000000000000000000000000000000000000815260040161059490610db4565b60405180910390fd5b600360009054906101000a900473ffffffffffffffffffffffffffffffffffffffff1673ffffffffffffffffffffffffffffffffffffffff166323b872dd3330846040518463ffffffff167c010000000000000000000000000000000000000000000000000000000002815260040161061893929190610cc1565b602060405180830381600087803b15801561063257600080fd5b505af1158015610646573d6000803e3d6000fd5b505050506040513d601f19601f8201168201806040525081019061066a9190610b67565b5080600560003373ffffffffffffffffffffffffffffffffffffffff1673ffffffffffffffffffffffffffffffffffffffff168152602001908152602001600020546106b69190610e2b565b600560003373ffffffffffffffffffffffffffffffffffffffff1673ffffffffffffffffffffffffffffffffffffffff16815260200190815260200160002081905550600660003373ffffffffffffffffffffffffffffffffffffffff1673ffffffffffffffffffffffffffffffffffffffff16815260200190815260200160002060009054906101000a900460ff166107ae576004339080600181540180825580915050600190039060005260206000200160009091909190916101000a81548173ffffffffffffffffffffffffffffffffffffffff021916908373ffffffffffffffffffffffffffffffffffffffff1602179055505b6001600760003373ffffffffffffffffffffffffffffffffffffffff1673ffffffffffffffffffffffffffffffffffffffff16815260200190815260200160002060006101000a81548160ff0219169083151502179055506001600660003373ffffffffffffffffffffffffffffffffffffffff1673ffffffffffffffffffffffffffffffffffffffff16815260200190815260200160002060006101000a81548160ff02191690831515021790555050565b600160009054906101000a900473ffffffffffffffffffffffffffffffffffffffff1681565b6000600560003373ffffffffffffffffffffffffffffffffffffffff1673ffffffffffffffffffffffffffffffffffffffff1681526020019081526020016000205490506000811161090e576040517f08c379a000000000000000000000000000000000000000000000000000000000815260040161090590610dd4565b60405180910390fd5b600360009054906101000a900473ffffffffffffffffffffffffffffffffffffffff1673ffffffffffffffffffffffffffffffffffffffff1663a9059cbb33836040518363ffffffff167c0100000000000000000000000000000000000000000000000000000000028152600401610987929190610cf8565b602060405180830381600087803b1580156109a157600080fd5b505af11580156109b5573d6000803e3d6000fd5b505050506040513d601f19601f820116820180604052508101906109d99190610b67565b506000600560003373ffffffffffffffffffffffffffffffffffffffff1673ffffffffffffffffffffffffffffffffffffffff168152602001908152602001600020819055506000600760003373ffffffffffffffffffffffffffffffffffffffff1673ffffffffffffffffffffffffffffffffffffffff16815260200190815260200160002060006101000a81548160ff02191690831515021790555050565b600360009054906101000a900473ffffffffffffffffffffffffffffffffffffffff1681565b60066020528060005260406000206000915054906101000a900460ff1681565b60048181548110610ad057600080fd5b906000526020600020016000915054906101000a900473ffffffffffffffffffffffffffffffffffffffff1681565b600081359050610b0e816110a9565b92915050565b600081519050610b23816110c0565b92915050565b600081359050610b38816110d7565b92915050565b600060208284031215610b5057600080fd5b6000610b5e84828501610aff565b91505092915050565b600060208284031215610b7957600080fd5b6000610b8784828501610b14565b91505092915050565b600060208284031215610ba257600080fd5b6000610bb084828501610b29565b91505092915050565b610bc281610e81565b82525050565b610bd181610e93565b82525050565b610be081610ec9565b82525050565b610bef81610eed565b82525050565b6000610c0082610e0f565b610c0a8185610e1a565b9350610c1a818560208601610f11565b610c238161101d565b840191505092915050565b6000610c3b601883610e1a565b9150610c468261102e565b602082019050919050565b6000610c5e601283610e1a565b9150610c6982611057565b602082019050919050565b6000610c81601383610e1a565b9150610c8c82611080565b602082019050919050565b610ca081610ebf565b82525050565b6000602082019050610cbb6000830184610bb9565b92915050565b6000606082019050610cd66000830186610bb9565b610ce36020830185610bb9565b610cf06040830184610c97565b949350505050565b6000604082019050610d0d6000830185610bb9565b610d1a6020830184610c97565b9392505050565b6000602082019050610d366000830184610bc8565b92915050565b6000602082019050610d516000830184610bd7565b92915050565b6000602082019050610d6c6000830184610be6565b92915050565b60006020820190508181036000830152610d8c8184610bf5565b905092915050565b60006020820190508181036000830152610dad81610c2e565b9050919050565b60006020820190508181036000830152610dcd81610c51565b9050919050565b60006020820190508181036000830152610ded81610c74565b9050919050565b6000602082019050610e096000830184610c97565b92915050565b600081519050919050565b600082825260208201905092915050565b6000610e3682610ebf565b9150610e4183610ebf565b9250827fffffffffffffffffffffffffffffffffffffffffffffffffffffffffffffffff03821115610e7657610e75610fbf565b5b828201905092915050565b6000610e8c82610e9f565b9050919050565b60008115159050919050565b600073ffffffffffffffffffffffffffffffffffffffff82169050919050565b6000819050919050565b6000610ed482610edb565b9050919050565b6000610ee682610e9f565b9050919050565b6000610ef882610eff565b9050919050565b6000610f0a82610e9f565b9050919050565b60005b83811015610f2f578082015181840152602081019050610f14565b83811115610f3e576000848401525b50505050565b60006002820490506001821680610f5c57607f821691505b60208210811415610f7057610f6f610fee565b5b50919050565b6000610f8182610ebf565b91507fffffffffffffffffffffffffffffffffffffffffffffffffffffffffffffffff821415610fb457610fb3610fbf565b5b600182019050919050565b7f4e487b7100000000000000000000000000000000000000000000000000000000600052601160045260246000fd5b7f4e487b7100000000000000000000000000000000000000000000000000000000600052602260045260246000fd5b6000601f19601f8301169050919050565b7f63616c6c6572206d75737420626520746865206f776e65720000000000000000600082015250565b7f616d6f756e742063616e6e6f7420626520300000000000000000000000000000600082015250565b7f7374616b696e672063616e6e6f74206265203000000000000000000000000000600082015250565b6110b281610e81565b81146110bd57600080fd5b50565b6110c981610e93565b81146110d457600080fd5b50565b6110e081610ebf565b81146110eb57600080fd5b5056fea26469706673582212206c05aff30c5d6e4f77bbbf4db22361e11bd047e9a783bf567c0ab47db3fe12a964736f6c63430008030033",
  "immutableReferences": {},
  "source": "pragma solidity ^0.8.3;\n\nimport \"./DappToken.sol\";\nimport \"./DaiToken.sol\";\n\ncontract TokenFarm {\n    string public name = \"DApp Token Farm\";\n    address public owner;\n    DappToken public dappToken;\n    DaiToken public daiToken;    \n\n    address[] public stakers;\n    mapping(address => uint) public stakingBalance;\n    mapping(address => bool) public hasStaked;\n    mapping(address => bool) public isStaking;\n\n\n\n    constructor(DappToken _dappToken, DaiToken _daiToken) public{\n        dappToken = _dappToken;\n        daiToken = _daiToken;\n        owner = msg.sender;\n    }\n\n    // Stakes token deposit \n    function stakeTokens(uint _amount) public {\n        // Require amount greater than 0\n        require(_amount > 0, \"amount cannot be 0\");\n\n        // Transfer Mock Dai tokens to this contract for staking\n        daiToken.transferFrom(msg.sender, address(this), _amount);\n\n        // Update staking balance\n        stakingBalance[msg.sender] = stakingBalance[msg.sender] + _amount;  \n\n        // Add user to stakers array *only* if they haven't staked already\n        if(!hasStaked[msg.sender]){\n            stakers.push(msg.sender);\n        }\n\n        isStaking[msg.sender] = true;\n        hasStaked[msg.sender] = true;\n    }\n\n    // Unstaking tokens (Withdraw)\n    function unstakeTokens() public {\n        // Fetch staking balance\n        uint balance = stakingBalance[msg.sender];\n\n        // Require amount greater than 0\n        require(balance > 0, \"staking cannot be 0\");\n        \n        // Transfer Mock Dai tokens to this contract for staking\n        daiToken.transfer(msg.sender, balance);\n\n        // Reset staking balance\n        stakingBalance[msg.sender] = 0;\n\n        // Update staking status\n        isStaking[msg.sender] = false;\n    }\n\n    // Issuing tokens\n    function issueTokens() public {\n        // Only owner can call this function\n        require(msg.sender == owner, \"caller must be the owner\");\n\n        // Issue tokens to all stakers\n        for(uint i = 0; i < stakers.length; i++){\n            address recipient = stakers[i];\n            uint balance = stakingBalance[recipient];\n            if(balance > 0){\n                dappToken.transfer(recipient, balance);\n            }\n        }\n    }\n}",
  "sourcePath": "/media/snowman/b3db83e2-fb87-46a1-bcf8-0d77015a3479/luiz/DaapUniversity/defi_project/src/contracts/TokenFarm.sol",
  "compiler": {
    "name": "solc",
    "version": "0.8.3+commit.8d00100c.Emscripten.clang"
  },
  "schemaVersion": "3.2.3",
  "updatedAt": "2021-05-06T00:55:27.529Z",
  "devdoc": {
    "kind": "dev",
    "methods": {},
    "version": 1
  },
  "userdoc": {
    "kind": "user",
    "methods": {},
    "version": 1
  }
}